{
  "_format": "hh-sol-artifact-1",
  "contractName": "TestToken",
  "sourceName": "contracts/test.sol",
  "abi": [
    {
      "inputs": [
        {
          "internalType": "address",
          "name": "_address1",
          "type": "address"
        },
        {
          "internalType": "address",
          "name": "_address2",
          "type": "address"
        },
        {
          "internalType": "address",
          "name": "_address3",
          "type": "address"
        },
        {
          "internalType": "address",
          "name": "_address4",
          "type": "address"
        },
        {
          "internalType": "address",
          "name": "_address5",
          "type": "address"
        },
        {
          "internalType": "uint256",
          "name": "_amount1",
          "type": "uint256"
        },
        {
          "internalType": "uint256",
          "name": "_amount2",
          "type": "uint256"
        },
        {
          "internalType": "uint256",
          "name": "_amount3",
          "type": "uint256"
        },
        {
          "internalType": "uint256",
          "name": "_amount4",
          "type": "uint256"
        },
        {
          "internalType": "uint256",
          "name": "_amount5",
          "type": "uint256"
        }
      ],
      "stateMutability": "nonpayable",
      "type": "constructor"
    },
    {
      "anonymous": false,
      "inputs": [
        {
          "indexed": true,
          "internalType": "address",
          "name": "owner",
          "type": "address"
        },
        {
          "indexed": true,
          "internalType": "address",
          "name": "spender",
          "type": "address"
        },
        {
          "indexed": false,
          "internalType": "uint256",
          "name": "value",
          "type": "uint256"
        }
      ],
      "name": "Approval",
      "type": "event"
    },
    {
      "anonymous": false,
      "inputs": [
        {
          "indexed": true,
          "internalType": "bytes32",
          "name": "role",
          "type": "bytes32"
        },
        {
          "indexed": true,
          "internalType": "bytes32",
          "name": "previousAdminRole",
          "type": "bytes32"
        },
        {
          "indexed": true,
          "internalType": "bytes32",
          "name": "newAdminRole",
          "type": "bytes32"
        }
      ],
      "name": "RoleAdminChanged",
      "type": "event"
    },
    {
      "anonymous": false,
      "inputs": [
        {
          "indexed": true,
          "internalType": "bytes32",
          "name": "role",
          "type": "bytes32"
        },
        {
          "indexed": true,
          "internalType": "address",
          "name": "account",
          "type": "address"
        },
        {
          "indexed": true,
          "internalType": "address",
          "name": "sender",
          "type": "address"
        }
      ],
      "name": "RoleGranted",
      "type": "event"
    },
    {
      "anonymous": false,
      "inputs": [
        {
          "indexed": true,
          "internalType": "bytes32",
          "name": "role",
          "type": "bytes32"
        },
        {
          "indexed": true,
          "internalType": "address",
          "name": "account",
          "type": "address"
        },
        {
          "indexed": true,
          "internalType": "address",
          "name": "sender",
          "type": "address"
        }
      ],
      "name": "RoleRevoked",
      "type": "event"
    },
    {
      "anonymous": false,
      "inputs": [
        {
          "indexed": true,
          "internalType": "address",
          "name": "from",
          "type": "address"
        },
        {
          "indexed": true,
          "internalType": "address",
          "name": "to",
          "type": "address"
        },
        {
          "indexed": false,
          "internalType": "uint256",
          "name": "value",
          "type": "uint256"
        }
      ],
      "name": "Transfer",
      "type": "event"
    },
    {
      "inputs": [],
      "name": "CLAIMABLE_ROLE",
      "outputs": [
        {
          "internalType": "bytes32",
          "name": "",
          "type": "bytes32"
        }
      ],
      "stateMutability": "view",
      "type": "function"
    },
    {
      "inputs": [],
      "name": "DEFAULT_ADMIN_ROLE",
      "outputs": [
        {
          "internalType": "bytes32",
          "name": "",
          "type": "bytes32"
        }
      ],
      "stateMutability": "view",
      "type": "function"
    },
    {
      "inputs": [],
      "name": "SUPPLY_CONTRACT",
      "outputs": [
        {
          "internalType": "uint256",
          "name": "",
          "type": "uint256"
        }
      ],
      "stateMutability": "view",
      "type": "function"
    },
    {
      "inputs": [
        {
          "internalType": "address",
          "name": "owner",
          "type": "address"
        },
        {
          "internalType": "address",
          "name": "spender",
          "type": "address"
        }
      ],
      "name": "allowance",
      "outputs": [
        {
          "internalType": "uint256",
          "name": "",
          "type": "uint256"
        }
      ],
      "stateMutability": "view",
      "type": "function"
    },
    {
      "inputs": [
        {
          "internalType": "address",
          "name": "spender",
          "type": "address"
        },
        {
          "internalType": "uint256",
          "name": "amount",
          "type": "uint256"
        }
      ],
      "name": "approve",
      "outputs": [
        {
          "internalType": "bool",
          "name": "",
          "type": "bool"
        }
      ],
      "stateMutability": "nonpayable",
      "type": "function"
    },
    {
      "inputs": [
        {
          "internalType": "address",
          "name": "account",
          "type": "address"
        }
      ],
      "name": "balanceOf",
      "outputs": [
        {
          "internalType": "uint256",
          "name": "",
          "type": "uint256"
        }
      ],
      "stateMutability": "view",
      "type": "function"
    },
    {
      "inputs": [
        {
          "internalType": "uint256",
          "name": "_amount",
          "type": "uint256"
        }
      ],
      "name": "claim",
      "outputs": [],
      "stateMutability": "nonpayable",
      "type": "function"
    },
    {
      "inputs": [],
      "name": "decimals",
      "outputs": [
        {
          "internalType": "uint8",
          "name": "",
          "type": "uint8"
        }
      ],
      "stateMutability": "view",
      "type": "function"
    },
    {
      "inputs": [
        {
          "internalType": "address",
          "name": "spender",
          "type": "address"
        },
        {
          "internalType": "uint256",
          "name": "subtractedValue",
          "type": "uint256"
        }
      ],
      "name": "decreaseAllowance",
      "outputs": [
        {
          "internalType": "bool",
          "name": "",
          "type": "bool"
        }
      ],
      "stateMutability": "nonpayable",
      "type": "function"
    },
    {
      "inputs": [
        {
          "internalType": "bytes32",
          "name": "role",
          "type": "bytes32"
        }
      ],
      "name": "getRoleAdmin",
      "outputs": [
        {
          "internalType": "bytes32",
          "name": "",
          "type": "bytes32"
        }
      ],
      "stateMutability": "view",
      "type": "function"
    },
    {
      "inputs": [
        {
          "internalType": "bytes32",
          "name": "role",
          "type": "bytes32"
        },
        {
          "internalType": "address",
          "name": "account",
          "type": "address"
        }
      ],
      "name": "grantRole",
      "outputs": [],
      "stateMutability": "nonpayable",
      "type": "function"
    },
    {
      "inputs": [
        {
          "internalType": "bytes32",
          "name": "role",
          "type": "bytes32"
        },
        {
          "internalType": "address",
          "name": "account",
          "type": "address"
        }
      ],
      "name": "hasRole",
      "outputs": [
        {
          "internalType": "bool",
          "name": "",
          "type": "bool"
        }
      ],
      "stateMutability": "view",
      "type": "function"
    },
    {
      "inputs": [
        {
          "internalType": "address",
          "name": "spender",
          "type": "address"
        },
        {
          "internalType": "uint256",
          "name": "addedValue",
          "type": "uint256"
        }
      ],
      "name": "increaseAllowance",
      "outputs": [
        {
          "internalType": "bool",
          "name": "",
          "type": "bool"
        }
      ],
      "stateMutability": "nonpayable",
      "type": "function"
    },
    {
      "inputs": [],
      "name": "name",
      "outputs": [
        {
          "internalType": "string",
          "name": "",
          "type": "string"
        }
      ],
      "stateMutability": "view",
      "type": "function"
    },
    {
      "inputs": [
        {
          "internalType": "bytes32",
          "name": "role",
          "type": "bytes32"
        },
        {
          "internalType": "address",
          "name": "account",
          "type": "address"
        }
      ],
      "name": "renounceRole",
      "outputs": [],
      "stateMutability": "nonpayable",
      "type": "function"
    },
    {
      "inputs": [
        {
          "internalType": "bytes32",
          "name": "role",
          "type": "bytes32"
        },
        {
          "internalType": "address",
          "name": "account",
          "type": "address"
        }
      ],
      "name": "revokeRole",
      "outputs": [],
      "stateMutability": "nonpayable",
      "type": "function"
    },
    {
      "inputs": [
        {
          "internalType": "bytes4",
          "name": "interfaceId",
          "type": "bytes4"
        }
      ],
      "name": "supportsInterface",
      "outputs": [
        {
          "internalType": "bool",
          "name": "",
          "type": "bool"
        }
      ],
      "stateMutability": "view",
      "type": "function"
    },
    {
      "inputs": [],
      "name": "symbol",
      "outputs": [
        {
          "internalType": "string",
          "name": "",
          "type": "string"
        }
      ],
      "stateMutability": "view",
      "type": "function"
    },
    {
      "inputs": [],
      "name": "totalSupply",
      "outputs": [
        {
          "internalType": "uint256",
          "name": "",
          "type": "uint256"
        }
      ],
      "stateMutability": "view",
      "type": "function"
    },
    {
      "inputs": [
        {
          "internalType": "address",
          "name": "to",
          "type": "address"
        },
        {
          "internalType": "uint256",
          "name": "amount",
          "type": "uint256"
        }
      ],
      "name": "transfer",
      "outputs": [
        {
          "internalType": "bool",
          "name": "",
          "type": "bool"
        }
      ],
      "stateMutability": "nonpayable",
      "type": "function"
    },
    {
      "inputs": [
        {
          "internalType": "address",
          "name": "from",
          "type": "address"
        },
        {
          "internalType": "address",
          "name": "to",
          "type": "address"
        },
        {
          "internalType": "uint256",
          "name": "amount",
          "type": "uint256"
        }
      ],
      "name": "transferFrom",
      "outputs": [
        {
          "internalType": "bool",
          "name": "",
          "type": "bool"
        }
      ],
      "stateMutability": "nonpayable",
      "type": "function"
    }
  ],
  "bytecode": "0x60806040523480156200001157600080fd5b50604051620015933803806200159383398101604081905262000034916200042e565b604080518082018252600a8152692a32b9ba102a37b5b2b760b11b602080830191825283518085019094526002845261151560f21b90840152815191929162000080916003916200036b565b508051620000969060049060208401906200036b565b505050620000ba600080516020620015738339815191528b620001cf60201b60201c565b620000d5600080516020620015738339815191528a620001cf565b620000f06000805160206200157383398151915289620001cf565b6200010b6000805160206200157383398151915288620001cf565b620001266000805160206200157383398151915287620001cf565b6200013c3069021e19e0c9bab2400000620001df565b6200015b8a6200015587670de0b6b3a7640000620004eb565b620001df565b62000174896200015586670de0b6b3a7640000620004eb565b6200018d886200015585670de0b6b3a7640000620004eb565b620001a6876200015584670de0b6b3a7640000620004eb565b620001bf866200015583670de0b6b3a7640000620004eb565b5050505050505050505062000560565b620001db8282620002c7565b5050565b6001600160a01b0382166200023a5760405162461bcd60e51b815260206004820152601f60248201527f45524332303a206d696e7420746f20746865207a65726f206164647265737300604482015260640160405180910390fd5b80600260008282546200024e9190620004d0565b90915550506001600160a01b038216600090815260208190526040812080548392906200027d908490620004d0565b90915550506040518181526001600160a01b038316906000907fddf252ad1be2c89b69c2b068fc378daa952ba7f163c4a11628f55a4df523b3ef9060200160405180910390a35050565b60008281526005602090815260408083206001600160a01b038516845290915290205460ff16620001db5760008281526005602090815260408083206001600160a01b03851684529091529020805460ff19166001179055620003273390565b6001600160a01b0316816001600160a01b0316837f2f8788117e7eff1d82e926ec794901d17c78024a50270940304540a733656f0d60405160405180910390a45050565b82805462000379906200050d565b90600052602060002090601f0160209004810192826200039d5760008555620003e8565b82601f10620003b857805160ff1916838001178555620003e8565b82800160010185558215620003e8579182015b82811115620003e8578251825591602001919060010190620003cb565b50620003f6929150620003fa565b5090565b5b80821115620003f65760008155600101620003fb565b80516001600160a01b03811681146200042957600080fd5b919050565b6000806000806000806000806000806101408b8d0312156200044f57600080fd5b6200045a8b62000411565b99506200046a60208c0162000411565b98506200047a60408c0162000411565b97506200048a60608c0162000411565b96506200049a60808c0162000411565b955060a08b0151945060c08b0151935060e08b015192506101008b015191506101208b015190509295989b9194979a5092959850565b60008219821115620004e657620004e66200054a565b500190565b60008160001904831182151516156200050857620005086200054a565b500290565b600181811c908216806200052257607f821691505b602082108114156200054457634e487b7160e01b600052602260045260246000fd5b50919050565b634e487b7160e01b600052601160045260246000fd5b61100380620005706000396000f3fe608060405234801561001057600080fd5b50600436106101375760003560e01c806339509351116100b8578063a457c2d71161007c578063a457c2d71461027d578063a9059cbb14610290578063b0b8d15f146102a3578063be4e3456146102ca578063d547741f146102db578063dd62ed3e146102ee57600080fd5b8063395093511461021e57806370a082311461023157806391d148541461025a57806395d89b411461026d578063a217fddf1461027557600080fd5b8063248a9ca3116100ff578063248a9ca3146101b15780632f2ff15d146101d4578063313ce567146101e957806336568abe146101f8578063379607f51461020b57600080fd5b806301ffc9a71461013c57806306fdde0314610164578063095ea7b31461017957806318160ddd1461018c57806323b872dd1461019e575b600080fd5b61014f61014a366004610e04565b610301565b60405190151581526020015b60405180910390f35b61016c610338565b60405161015b9190610ea3565b61014f610187366004610d9e565b6103ca565b6002545b60405190815260200161015b565b61014f6101ac366004610d62565b6103e2565b6101906101bf366004610dc8565b60009081526005602052604090206001015490565b6101e76101e2366004610de1565b610406565b005b6040516012815260200161015b565b6101e7610206366004610de1565b610430565b6101e7610219366004610dc8565b6104b3565b61014f61022c366004610d9e565b610556565b61019061023f366004610d14565b6001600160a01b031660009081526020819052604090205490565b61014f610268366004610de1565b610578565b61016c6105a3565b610190600081565b61014f61028b366004610d9e565b6105b2565b61014f61029e366004610d9e565b61062d565b6101907fbb773b98284e9eff718f1826f7f2ba72af321ca82bdb814f67424a2c0da8834481565b61019069021e19e0c9bab240000081565b6101e76102e9366004610de1565b61063b565b6101906102fc366004610d2f565b610660565b60006001600160e01b03198216637965db0b60e01b148061033257506301ffc9a760e01b6001600160e01b03198316145b92915050565b60606003805461034790610f50565b80601f016020809104026020016040519081016040528092919081815260200182805461037390610f50565b80156103c05780601f10610395576101008083540402835291602001916103c0565b820191906000526020600020905b8154815290600101906020018083116103a357829003601f168201915b5050505050905090565b6000336103d881858561068b565b5060019392505050565b6000336103f08582856107af565b6103fb858585610829565b506001949350505050565b600082815260056020526040902060010154610421816109f7565b61042b8383610a04565b505050565b6001600160a01b03811633146104a55760405162461bcd60e51b815260206004820152602f60248201527f416363657373436f6e74726f6c3a2063616e206f6e6c792072656e6f756e636560448201526e103937b632b9903337b91039b2b63360891b60648201526084015b60405180910390fd5b6104af8282610a8a565b5050565b7fbb773b98284e9eff718f1826f7f2ba72af321ca82bdb814f67424a2c0da883446104dd816109f7565b3060009081526020819052604090205482111561054b5760405162461bcd60e51b815260206004820152602660248201527f546f6b656e2062616c616e6365206f66207468697320636f6e74726163742069604482015265399037bb32b960d11b606482015260840161049c565b6104af303384610829565b6000336103d88185856105698383610660565b6105739190610ed6565b61068b565b60009182526005602090815260408084206001600160a01b0393909316845291905290205460ff1690565b60606004805461034790610f50565b600033816105c08286610660565b9050838110156106205760405162461bcd60e51b815260206004820152602560248201527f45524332303a2064656372656173656420616c6c6f77616e63652062656c6f77604482015264207a65726f60d81b606482015260840161049c565b6103fb828686840361068b565b6000336103d8818585610829565b600082815260056020526040902060010154610656816109f7565b61042b8383610a8a565b6001600160a01b03918216600090815260016020908152604080832093909416825291909152205490565b6001600160a01b0383166106ed5760405162461bcd60e51b8152602060048201526024808201527f45524332303a20617070726f76652066726f6d20746865207a65726f206164646044820152637265737360e01b606482015260840161049c565b6001600160a01b03821661074e5760405162461bcd60e51b815260206004820152602260248201527f45524332303a20617070726f766520746f20746865207a65726f206164647265604482015261737360f01b606482015260840161049c565b6001600160a01b0383811660008181526001602090815260408083209487168084529482529182902085905590518481527f8c5be1e5ebec7d5bd14f71427d1e84f3dd0314c0f7b2291e5b200ac8c7c3b925910160405180910390a3505050565b60006107bb8484610660565b9050600019811461082357818110156108165760405162461bcd60e51b815260206004820152601d60248201527f45524332303a20696e73756666696369656e7420616c6c6f77616e6365000000604482015260640161049c565b610823848484840361068b565b50505050565b6001600160a01b03831661088d5760405162461bcd60e51b815260206004820152602560248201527f45524332303a207472616e736665722066726f6d20746865207a65726f206164604482015264647265737360d81b606482015260840161049c565b6001600160a01b0382166108ef5760405162461bcd60e51b815260206004820152602360248201527f45524332303a207472616e7366657220746f20746865207a65726f206164647260448201526265737360e81b606482015260840161049c565b6001600160a01b038316600090815260208190526040902054818110156109675760405162461bcd60e51b815260206004820152602660248201527f45524332303a207472616e7366657220616d6f756e7420657863656564732062604482015265616c616e636560d01b606482015260840161049c565b6001600160a01b0380851660009081526020819052604080822085850390559185168152908120805484929061099e908490610ed6565b92505081905550826001600160a01b0316846001600160a01b03167fddf252ad1be2c89b69c2b068fc378daa952ba7f163c4a11628f55a4df523b3ef846040516109ea91815260200190565b60405180910390a3610823565b610a018133610af1565b50565b610a0e8282610578565b6104af5760008281526005602090815260408083206001600160a01b03851684529091529020805460ff19166001179055610a463390565b6001600160a01b0316816001600160a01b0316837f2f8788117e7eff1d82e926ec794901d17c78024a50270940304540a733656f0d60405160405180910390a45050565b610a948282610578565b156104af5760008281526005602090815260408083206001600160a01b0385168085529252808320805460ff1916905551339285917ff6391f5c32d9c69d2a47ea670b442974b53935d1edc7fd64eb21e047a839171b9190a45050565b610afb8282610578565b6104af57610b13816001600160a01b03166014610b55565b610b1e836020610b55565b604051602001610b2f929190610e2e565b60408051601f198184030181529082905262461bcd60e51b825261049c91600401610ea3565b60606000610b64836002610eee565b610b6f906002610ed6565b67ffffffffffffffff811115610b8757610b87610fb7565b6040519080825280601f01601f191660200182016040528015610bb1576020820181803683370190505b509050600360fc1b81600081518110610bcc57610bcc610fa1565b60200101906001600160f81b031916908160001a905350600f60fb1b81600181518110610bfb57610bfb610fa1565b60200101906001600160f81b031916908160001a9053506000610c1f846002610eee565b610c2a906001610ed6565b90505b6001811115610ca2576f181899199a1a9b1b9c1cb0b131b232b360811b85600f1660108110610c5e57610c5e610fa1565b1a60f81b828281518110610c7457610c74610fa1565b60200101906001600160f81b031916908160001a90535060049490941c93610c9b81610f39565b9050610c2d565b508315610cf15760405162461bcd60e51b815260206004820181905260248201527f537472696e67733a20686578206c656e67746820696e73756666696369656e74604482015260640161049c565b9392505050565b80356001600160a01b0381168114610d0f57600080fd5b919050565b600060208284031215610d2657600080fd5b610cf182610cf8565b60008060408385031215610d4257600080fd5b610d4b83610cf8565b9150610d5960208401610cf8565b90509250929050565b600080600060608486031215610d7757600080fd5b610d8084610cf8565b9250610d8e60208501610cf8565b9150604084013590509250925092565b60008060408385031215610db157600080fd5b610dba83610cf8565b946020939093013593505050565b600060208284031215610dda57600080fd5b5035919050565b60008060408385031215610df457600080fd5b82359150610d5960208401610cf8565b600060208284031215610e1657600080fd5b81356001600160e01b031981168114610cf157600080fd5b7f416363657373436f6e74726f6c3a206163636f756e7420000000000000000000815260008351610e66816017850160208801610f0d565b7001034b99036b4b9b9b4b733903937b6329607d1b6017918401918201528351610e97816028840160208801610f0d565b01602801949350505050565b6020815260008251806020840152610ec2816040850160208701610f0d565b601f01601f19169190910160400192915050565b60008219821115610ee957610ee9610f8b565b500190565b6000816000190483118215151615610f0857610f08610f8b565b500290565b60005b83811015610f28578181015183820152602001610f10565b838111156108235750506000910152565b600081610f4857610f48610f8b565b506000190190565b600181811c90821680610f6457607f821691505b60208210811415610f8557634e487b7160e01b600052602260045260246000fd5b50919050565b634e487b7160e01b600052601160045260246000fd5b634e487b7160e01b600052603260045260246000fd5b634e487b7160e01b600052604160045260246000fdfea2646970667358221220e7d47c135f6edb7f500693c1ef1a98ca7a64f7e2b98f20ed34c7c044273f78dd64736f6c63430008070033bb773b98284e9eff718f1826f7f2ba72af321ca82bdb814f67424a2c0da88344",
  "linkReferences": {},
  "deployedLinkReferences": {}
}